{"abi":[{"type":"constructor","inputs":[{"name":"_owners","type":"address[]","internalType":"address[]"},{"name":"_required","type":"uint256","internalType":"uint256"}],"stateMutability":"nonpayable"},{"type":"receive","stateMutability":"payable"},{"type":"function","name":"approve","inputs":[{"name":"_txId","type":"uint256","internalType":"uint256"}],"outputs":[],"stateMutability":"nonpayable"},{"type":"function","name":"approved","inputs":[{"name":"","type":"uint256","internalType":"uint256"},{"name":"","type":"address","internalType":"address"}],"outputs":[{"name":"","type":"bool","internalType":"bool"}],"stateMutability":"view"},{"type":"function","name":"execute","inputs":[{"name":"_txId","type":"uint256","internalType":"uint256"}],"outputs":[],"stateMutability":"nonpayable"},{"type":"function","name":"isOwner","inputs":[{"name":"","type":"address","internalType":"address"}],"outputs":[{"name":"","type":"bool","internalType":"bool"}],"stateMutability":"view"},{"type":"function","name":"owners","inputs":[{"name":"","type":"uint256","internalType":"uint256"}],"outputs":[{"name":"","type":"address","internalType":"address"}],"stateMutability":"view"},{"type":"function","name":"required","inputs":[],"outputs":[{"name":"","type":"uint256","internalType":"uint256"}],"stateMutability":"view"},{"type":"function","name":"revoke","inputs":[{"name":"_txId","type":"uint256","internalType":"uint256"}],"outputs":[],"stateMutability":"nonpayable"},{"type":"function","name":"submit","inputs":[{"name":"_to","type":"address","internalType":"address"},{"name":"_value","type":"uint256","internalType":"uint256"},{"name":"_data","type":"bytes","internalType":"bytes"}],"outputs":[],"stateMutability":"nonpayable"},{"type":"function","name":"transactions","inputs":[{"name":"","type":"uint256","internalType":"uint256"}],"outputs":[{"name":"to","type":"address","internalType":"address"},{"name":"value","type":"uint256","internalType":"uint256"},{"name":"data","type":"bytes","internalType":"bytes"},{"name":"executed","type":"bool","internalType":"bool"}],"stateMutability":"view"},{"type":"event","name":"Approve","inputs":[{"name":"owner","type":"address","indexed":true,"internalType":"address"},{"name":"txId","type":"uint256","indexed":true,"internalType":"uint256"}],"anonymous":false},{"type":"event","name":"Deposit","inputs":[{"name":"sender","type":"address","indexed":true,"internalType":"address"},{"name":"amount","type":"uint256","indexed":true,"internalType":"uint256"}],"anonymous":false},{"type":"event","name":"Execute","inputs":[{"name":"txId","type":"uint256","indexed":true,"internalType":"uint256"}],"anonymous":false},{"type":"event","name":"Revoke","inputs":[{"name":"owner","type":"address","indexed":true,"internalType":"address"},{"name":"txId","type":"uint256","indexed":true,"internalType":"uint256"}],"anonymous":false},{"type":"event","name":"Submit","inputs":[{"name":"txId","type":"uint256","indexed":true,"internalType":"uint256"}],"anonymous":false}],"bytecode":{"object":"0x608060405234801561000f575f5ffd5b50604051612123380380612123833981810160405281019061003191906104a2565b5f825111610074576040517f08c379a000000000000000000000000000000000000000000000000000000000815260040161006b90610556565b60405180910390fd5b5f81118015610084575081518111155b6100c3576040517f08c379a00000000000000000000000000000000000000000000000000000000081526004016100ba906105be565b60405180910390fd5b5f5b82518110156102a5575f8382815181106100e2576100e16105dc565b5b602002602001015190505f73ffffffffffffffffffffffffffffffffffffffff168173ffffffffffffffffffffffffffffffffffffffff160361015a576040517f08c379a000000000000000000000000000000000000000000000000000000000815260040161015190610653565b60405180910390fd5b60015f8273ffffffffffffffffffffffffffffffffffffffff1673ffffffffffffffffffffffffffffffffffffffff1681526020019081526020015f205f9054906101000a900460ff16156101e4576040517f08c379a00000000000000000000000000000000000000000000000000000000081526004016101db906106bb565b60405180910390fd5b6001805f8373ffffffffffffffffffffffffffffffffffffffff1673ffffffffffffffffffffffffffffffffffffffff1681526020019081526020015f205f6101000a81548160ff0219169083151502179055505f81908060018154018082558091505060019003905f5260205f20015f9091909190916101000a81548173ffffffffffffffffffffffffffffffffffffffff021916908373ffffffffffffffffffffffffffffffffffffffff1602179055505080806001019150506100c5565b508060038190555050506106d9565b5f604051905090565b5f5ffd5b5f5ffd5b5f5ffd5b5f601f19601f8301169050919050565b7f4e487b71000000000000000000000000000000000000000000000000000000005f52604160045260245ffd5b61030f826102c9565b810181811067ffffffffffffffff8211171561032e5761032d6102d9565b5b80604052505050565b5f6103406102b4565b905061034c8282610306565b919050565b5f67ffffffffffffffff82111561036b5761036a6102d9565b5b602082029050602081019050919050565b5f5ffd5b5f73ffffffffffffffffffffffffffffffffffffffff82169050919050565b5f6103a982610380565b9050919050565b6103b98161039f565b81146103c3575f5ffd5b50565b5f815190506103d4816103b0565b92915050565b5f6103ec6103e784610351565b610337565b9050808382526020820190506020840283018581111561040f5761040e61037c565b5b835b81811015610438578061042488826103c6565b845260208401935050602081019050610411565b5050509392505050565b5f82601f830112610456576104556102c5565b5b81516104668482602086016103da565b91505092915050565b5f819050919050565b6104818161046f565b811461048b575f5ffd5b50565b5f8151905061049c81610478565b92915050565b5f5f604083850312156104b8576104b76102bd565b5b5f83015167ffffffffffffffff8111156104d5576104d46102c1565b5b6104e185828601610442565b92505060206104f28582860161048e565b9150509250929050565b5f82825260208201905092915050565b7f6f776e65727320726571756972656400000000000000000000000000000000005f82015250565b5f610540600f836104fc565b915061054b8261050c565b602082019050919050565b5f6020820190508181035f83015261056d81610534565b9050919050565b7f496e76616c6964206e6f206f66206f776e6572730000000000000000000000005f82015250565b5f6105a86014836104fc565b91506105b382610574565b602082019050919050565b5f6020820190508181035f8301526105d58161059c565b9050919050565b7f4e487b71000000000000000000000000000000000000000000000000000000005f52603260045260245ffd5b7f61646472657373207a65726f2063616e2774206265206f776e657200000000005f82015250565b5f61063d601b836104fc565b915061064882610609565b602082019050919050565b5f6020820190508181035f83015261066a81610631565b9050919050565b7f6578697374696e67206f776e65720000000000000000000000000000000000005f82015250565b5f6106a5600e836104fc565b91506106b082610671565b602082019050919050565b5f6020820190508181035f8301526106d281610699565b9050919050565b611a3d806106e65f395ff3fe608060405260043610610089575f3560e01c80638253951a116100585780638253951a146101a05780639ace38c2146101dc578063b759f9541461021b578063dc8452cd14610243578063fe0d94c11461026d576100d4565b8063025e7c27146100d857806314de327f1461011457806320c5429b1461013c5780632f54bf6e14610164576100d4565b366100d457343373ffffffffffffffffffffffffffffffffffffffff167fe1fffcc4923d04b559f4d29a8bfc6cda04eb5b0d3c460751c2402c5c5cc9109c60405160405180910390a3005b5f5ffd5b3480156100e3575f5ffd5b506100fe60048036038101906100f99190610f2a565b610295565b60405161010b9190610f94565b60405180910390f35b34801561011f575f5ffd5b5061013a60048036038101906101359190611038565b6102cf565b005b348015610147575f5ffd5b50610162600480360381019061015d9190610f2a565b610507565b005b34801561016f575f5ffd5b5061018a600480360381019061018591906110a9565b61078d565b60405161019791906110ee565b60405180910390f35b3480156101ab575f5ffd5b506101c660048036038101906101c19190611107565b6107aa565b6040516101d391906110ee565b60405180910390f35b3480156101e7575f5ffd5b5061020260048036038101906101fd9190610f2a565b6107d4565b60405161021294939291906111c4565b60405180910390f35b348015610226575f5ffd5b50610241600480360381019061023c9190610f2a565b6108c0565b005b34801561024e575f5ffd5b50610257610b4a565b604051610264919061120e565b60405180910390f35b348015610278575f5ffd5b50610293600480360381019061028e9190610f2a565b610b50565b005b5f81815481106102a3575f80fd5b905f5260205f20015f915054906101000a900473ffffffffffffffffffffffffffffffffffffffff1681565b60015f3373ffffffffffffffffffffffffffffffffffffffff1673ffffffffffffffffffffffffffffffffffffffff1681526020019081526020015f205f9054906101000a900460ff16610358576040517f08c379a000000000000000000000000000000000000000000000000000000000815260040161034f90611281565b60405180910390fd5b5f831161039a576040517f08c379a0000000000000000000000000000000000000000000000000000000008152600401610391906112e9565b60405180910390fd5b600460405180608001604052808673ffffffffffffffffffffffffffffffffffffffff16815260200185815260200184848080601f0160208091040260200160405190810160405280939291908181526020018383808284375f81840152601f19601f8201169050808301925050505050505081526020015f1515815250908060018154018082558091505060019003905f5260205f2090600402015f909190919091505f820151815f015f6101000a81548173ffffffffffffffffffffffffffffffffffffffff021916908373ffffffffffffffffffffffffffffffffffffffff1602179055506020820151816001015560408201518160020190816104a19190611542565b506060820151816003015f6101000a81548160ff021916908315150217905550505060016004805490506104d5919061163e565b7f08324b3d745b914e3abd4ffbfead91e3b78391a98c173202129215ab933adfbe60405160405180910390a250505050565b60015f3373ffffffffffffffffffffffffffffffffffffffff1673ffffffffffffffffffffffffffffffffffffffff1681526020019081526020015f205f9054906101000a900460ff16610590576040517f08c379a000000000000000000000000000000000000000000000000000000000815260040161058790611281565b60405180910390fd5b8060048054905081106105d8576040517f08c379a00000000000000000000000000000000000000000000000000000000081526004016105cf906116bb565b60405180910390fd5b81600481815481106105ed576105ec6116d9565b5b905f5260205f2090600402016003015f9054906101000a900460ff1615610649576040517f08c379a000000000000000000000000000000000000000000000000000000000815260040161064090611750565b60405180910390fd5b60025f8481526020019081526020015f205f3373ffffffffffffffffffffffffffffffffffffffff1673ffffffffffffffffffffffffffffffffffffffff1681526020019081526020015f205f9054906101000a900460ff166106e1576040517f08c379a00000000000000000000000000000000000000000000000000000000081526004016106d8906117b8565b60405180910390fd5b5f60025f8581526020019081526020015f205f3373ffffffffffffffffffffffffffffffffffffffff1673ffffffffffffffffffffffffffffffffffffffff1681526020019081526020015f205f6101000a81548160ff021916908315150217905550823373ffffffffffffffffffffffffffffffffffffffff167fec9ab91322523c899ede7830ec9bfc992b5981cdcc27b91162fb23de5791117b60405160405180910390a3505050565b6001602052805f5260405f205f915054906101000a900460ff1681565b6002602052815f5260405f20602052805f5260405f205f915091509054906101000a900460ff1681565b600481815481106107e3575f80fd5b905f5260205f2090600402015f91509050805f015f9054906101000a900473ffffffffffffffffffffffffffffffffffffffff169080600101549080600201805461082d90611361565b80601f016020809104026020016040519081016040528092919081815260200182805461085990611361565b80156108a45780601f1061087b576101008083540402835291602001916108a4565b820191905f5260205f20905b81548152906001019060200180831161088757829003601f168201915b505050505090806003015f9054906101000a900460ff16905084565b60015f3373ffffffffffffffffffffffffffffffffffffffff1673ffffffffffffffffffffffffffffffffffffffff1681526020019081526020015f205f9054906101000a900460ff16610949576040517f08c379a000000000000000000000000000000000000000000000000000000000815260040161094090611281565b60405180910390fd5b806004805490508110610991576040517f08c379a0000000000000000000000000000000000000000000000000000000008152600401610988906116bb565b60405180910390fd5b8160025f8281526020019081526020015f205f3373ffffffffffffffffffffffffffffffffffffffff1673ffffffffffffffffffffffffffffffffffffffff1681526020019081526020015f205f9054906101000a900460ff1615610a2b576040517f08c379a0000000000000000000000000000000000000000000000000000000008152600401610a2290611820565b60405180910390fd5b8260048181548110610a4057610a3f6116d9565b5b905f5260205f2090600402016003015f9054906101000a900460ff1615610a9c576040517f08c379a0000000000000000000000000000000000000000000000000000000008152600401610a9390611750565b60405180910390fd5b600160025f8681526020019081526020015f205f3373ffffffffffffffffffffffffffffffffffffffff1673ffffffffffffffffffffffffffffffffffffffff1681526020019081526020015f205f6101000a81548160ff021916908315150217905550833373ffffffffffffffffffffffffffffffffffffffff167f90ec57f18fa7b15c6b8d5e4d1deb90796c74b2ff23d4d0cecad0cb42a96b312860405160405180910390a350505050565b60035481565b60015f3373ffffffffffffffffffffffffffffffffffffffff1673ffffffffffffffffffffffffffffffffffffffff1681526020019081526020015f205f9054906101000a900460ff16610bd9576040517f08c379a0000000000000000000000000000000000000000000000000000000008152600401610bd090611281565b60405180910390fd5b806004805490508110610c21576040517f08c379a0000000000000000000000000000000000000000000000000000000008152600401610c18906116bb565b60405180910390fd5b8160048181548110610c3657610c356116d9565b5b905f5260205f2090600402016003015f9054906101000a900460ff1615610c92576040517f08c379a0000000000000000000000000000000000000000000000000000000008152600401610c8990611750565b60405180910390fd5b600354610c9e84610e25565b1015610cdf576040517f08c379a0000000000000000000000000000000000000000000000000000000008152600401610cd6906118ae565b60405180910390fd5b5f60048481548110610cf457610cf36116d9565b5b905f5260205f20906004020190506001816003015f6101000a81548160ff0219169083151502179055505f815f015f9054906101000a900473ffffffffffffffffffffffffffffffffffffffff1673ffffffffffffffffffffffffffffffffffffffff16826001015483600201604051610d6e9190611956565b5f6040518083038185875af1925050503d805f8114610da8576040519150601f19603f3d011682016040523d82523d5f602084013e610dad565b606091505b5050905080610df1576040517f08c379a0000000000000000000000000000000000000000000000000000000008152600401610de8906119b6565b60405180910390fd5b847fddb556f1d2c1ec821e910b019d3685b229db152a0ecd517ca7e24b8bd713928960405160405180910390a25050505050565b5f5f5b5f80549050811015610ee95760025f8481526020019081526020015f205f5f8381548110610e5957610e586116d9565b5b905f5260205f20015f9054906101000a900473ffffffffffffffffffffffffffffffffffffffff1673ffffffffffffffffffffffffffffffffffffffff1673ffffffffffffffffffffffffffffffffffffffff1681526020019081526020015f205f9054906101000a900460ff1615610edc57600182610ed991906119d4565b91505b8080600101915050610e28565b50919050565b5f5ffd5b5f5ffd5b5f819050919050565b610f0981610ef7565b8114610f13575f5ffd5b50565b5f81359050610f2481610f00565b92915050565b5f60208284031215610f3f57610f3e610eef565b5b5f610f4c84828501610f16565b91505092915050565b5f73ffffffffffffffffffffffffffffffffffffffff82169050919050565b5f610f7e82610f55565b9050919050565b610f8e81610f74565b82525050565b5f602082019050610fa75f830184610f85565b92915050565b610fb681610f74565b8114610fc0575f5ffd5b50565b5f81359050610fd181610fad565b92915050565b5f5ffd5b5f5ffd5b5f5ffd5b5f5f83601f840112610ff857610ff7610fd7565b5b8235905067ffffffffffffffff81111561101557611014610fdb565b5b60208301915083600182028301111561103157611030610fdf565b5b9250929050565b5f5f5f5f606085870312156110505761104f610eef565b5b5f61105d87828801610fc3565b945050602061106e87828801610f16565b935050604085013567ffffffffffffffff81111561108f5761108e610ef3565b5b61109b87828801610fe3565b925092505092959194509250565b5f602082840312156110be576110bd610eef565b5b5f6110cb84828501610fc3565b91505092915050565b5f8115159050919050565b6110e8816110d4565b82525050565b5f6020820190506111015f8301846110df565b92915050565b5f5f6040838503121561111d5761111c610eef565b5b5f61112a85828601610f16565b925050602061113b85828601610fc3565b9150509250929050565b61114e81610ef7565b82525050565b5f81519050919050565b5f82825260208201905092915050565b8281835e5f83830152505050565b5f601f19601f8301169050919050565b5f61119682611154565b6111a0818561115e565b93506111b081856020860161116e565b6111b98161117c565b840191505092915050565b5f6080820190506111d75f830187610f85565b6111e46020830186611145565b81810360408301526111f6818561118c565b905061120560608301846110df565b95945050505050565b5f6020820190506112215f830184611145565b92915050565b5f82825260208201905092915050565b7f6e6f74206f776e657200000000000000000000000000000000000000000000005f82015250565b5f61126b600983611227565b915061127682611237565b602082019050919050565b5f6020820190508181035f8301526112988161125f565b9050919050565b7f496e7661696c642076616c7565000000000000000000000000000000000000005f82015250565b5f6112d3600d83611227565b91506112de8261129f565b602082019050919050565b5f6020820190508181035f830152611300816112c7565b9050919050565b7f4e487b71000000000000000000000000000000000000000000000000000000005f52604160045260245ffd5b7f4e487b71000000000000000000000000000000000000000000000000000000005f52602260045260245ffd5b5f600282049050600182168061137857607f821691505b60208210810361138b5761138a611334565b5b50919050565b5f819050815f5260205f209050919050565b5f6020601f8301049050919050565b5f82821b905092915050565b5f600883026113ed7fffffffffffffffffffffffffffffffffffffffffffffffffffffffffffffffff826113b2565b6113f786836113b2565b95508019841693508086168417925050509392505050565b5f819050919050565b5f61143261142d61142884610ef7565b61140f565b610ef7565b9050919050565b5f819050919050565b61144b83611418565b61145f61145782611439565b8484546113be565b825550505050565b5f5f905090565b611476611467565b611481818484611442565b505050565b5f5b828110156114a75761149c5f82840161146e565b600181019050611488565b505050565b601f8211156114fa57828211156114f9576114c681611391565b6114cf836113a3565b6114d8856113a3565b60208610156114e5575f90505b8083016114f482840382611486565b505050505b5b505050565b5f82821c905092915050565b5f61151a5f19846008026114ff565b1980831691505092915050565b5f611532838361150b565b9150826002028217905092915050565b61154b82611154565b67ffffffffffffffff81111561156457611563611307565b5b61156e8254611361565b6115798282856114ac565b5f60209050601f8311600181146115aa575f8415611598578287015190505b6115a28582611527565b865550611609565b601f1984166115b886611391565b5f5b828110156115df578489015182556001820191506020850194506020810190506115ba565b868310156115fc57848901516115f8601f89168261150b565b8355505b6001600288020188555050505b505050505050565b7f4e487b71000000000000000000000000000000000000000000000000000000005f52601160045260245ffd5b5f61164882610ef7565b915061165383610ef7565b925082820390508181111561166b5761166a611611565b5b92915050565b7f747820646f6573206e6f742020657869737473000000000000000000000000005f82015250565b5f6116a5601383611227565b91506116b082611671565b602082019050919050565b5f6020820190508181035f8301526116d281611699565b9050919050565b7f4e487b71000000000000000000000000000000000000000000000000000000005f52603260045260245ffd5b7f65786563757465642074780000000000000000000000000000000000000000005f82015250565b5f61173a600b83611227565b915061174582611706565b602082019050919050565b5f6020820190508181035f8301526117678161172e565b9050919050565b7f7478206e6f7420617070726f76650000000000000000000000000000000000005f82015250565b5f6117a2600e83611227565b91506117ad8261176e565b602082019050919050565b5f6020820190508181035f8301526117cf81611796565b9050919050565b7f617070726f7665642074780000000000000000000000000000000000000000005f82015250565b5f61180a600b83611227565b9150611815826117d6565b602082019050919050565b5f6020820190508181035f830152611837816117fe565b9050919050565b7f6e656564206d6f7265206e6f206f6620617070726f76616c73207265717569725f8201527f6564000000000000000000000000000000000000000000000000000000000000602082015250565b5f611898602283611227565b91506118a38261183e565b604082019050919050565b5f6020820190508181035f8301526118c58161188c565b9050919050565b5f81905092915050565b5f81546118e281611361565b6118ec81866118cc565b9450600182165f8114611906576001811461191b5761194d565b60ff198316865281151582028601935061194d565b61192485611391565b5f5b8381101561194557815481890152600182019150602081019050611926565b838801955050505b50505092915050565b5f61196182846118d6565b915081905092915050565b7f7478206661696c656400000000000000000000000000000000000000000000005f82015250565b5f6119a0600983611227565b91506119ab8261196c565b602082019050919050565b5f6020820190508181035f8301526119cd81611994565b9050919050565b5f6119de82610ef7565b91506119e983610ef7565b9250828201905080821115611a0157611a00611611565b5b9291505056fea264697066735822122080f5101a893120a513cb7a3832e0a5086f0a22bffc3ce92dca64d1be9e5b0e4764736f6c63430008210033","linkReferences":{}},"methodIdentifiers":{"approve(uint256)":"b759f954","approved(uint256,address)":"8253951a","execute(uint256)":"fe0d94c1","isOwner(address)":"2f54bf6e","owners(uint256)":"025e7c27","required()":"dc8452cd","revoke(uint256)":"20c5429b","submit(address,uint256,bytes)":"14de327f","transactions(uint256)":"9ace38c2"},"id":19}